{
  "contractName": "Marketplace",
  "abi": [
    {
      "anonymous": false,
      "inputs": [
        {
          "indexed": true,
          "internalType": "uint256",
          "name": "itemId",
          "type": "uint256"
        },
        {
          "indexed": false,
          "internalType": "string",
          "name": "name",
          "type": "string"
        },
        {
          "indexed": false,
          "internalType": "uint256",
          "name": "price",
          "type": "uint256"
        },
        {
          "indexed": false,
          "internalType": "address",
          "name": "seller",
          "type": "address"
        }
      ],
      "name": "ItemListed",
      "type": "event"
    },
    {
      "anonymous": false,
      "inputs": [
        {
          "indexed": true,
          "internalType": "uint256",
          "name": "itemId",
          "type": "uint256"
        },
        {
          "indexed": false,
          "internalType": "address",
          "name": "buyer",
          "type": "address"
        },
        {
          "indexed": false,
          "internalType": "address",
          "name": "seller",
          "type": "address"
        }
      ],
      "name": "ItemPurchased",
      "type": "event"
    },
    {
      "anonymous": false,
      "inputs": [
        {
          "indexed": true,
          "internalType": "address",
          "name": "user",
          "type": "address"
        },
        {
          "indexed": false,
          "internalType": "uint256",
          "name": "initialBalance",
          "type": "uint256"
        }
      ],
      "name": "UserRegistered",
      "type": "event"
    },
    {
      "inputs": [],
      "name": "itemCount",
      "outputs": [
        {
          "internalType": "uint256",
          "name": "",
          "type": "uint256"
        }
      ],
      "stateMutability": "view",
      "type": "function"
    },
    {
      "inputs": [
        {
          "internalType": "uint256",
          "name": "",
          "type": "uint256"
        }
      ],
      "name": "items",
      "outputs": [
        {
          "internalType": "uint256",
          "name": "id",
          "type": "uint256"
        },
        {
          "internalType": "string",
          "name": "name",
          "type": "string"
        },
        {
          "internalType": "string",
          "name": "description",
          "type": "string"
        },
        {
          "internalType": "uint256",
          "name": "price",
          "type": "uint256"
        },
        {
          "internalType": "address payable",
          "name": "seller",
          "type": "address"
        },
        {
          "internalType": "address",
          "name": "buyer",
          "type": "address"
        },
        {
          "internalType": "bool",
          "name": "sold",
          "type": "bool"
        }
      ],
      "stateMutability": "view",
      "type": "function"
    },
    {
      "inputs": [
        {
          "internalType": "address",
          "name": "",
          "type": "address"
        }
      ],
      "name": "users",
      "outputs": [
        {
          "internalType": "address",
          "name": "userAddress",
          "type": "address"
        },
        {
          "internalType": "uint256",
          "name": "balance",
          "type": "uint256"
        },
        {
          "internalType": "bool",
          "name": "registered",
          "type": "bool"
        }
      ],
      "stateMutability": "view",
      "type": "function"
    },
    {
      "inputs": [],
      "name": "registerUser",
      "outputs": [],
      "stateMutability": "nonpayable",
      "type": "function"
    },
    {
      "inputs": [
        {
          "internalType": "string",
          "name": "_name",
          "type": "string"
        },
        {
          "internalType": "string",
          "name": "_description",
          "type": "string"
        },
        {
          "internalType": "uint256",
          "name": "_price",
          "type": "uint256"
        }
      ],
      "name": "listItem",
      "outputs": [],
      "stateMutability": "nonpayable",
      "type": "function"
    },
    {
      "inputs": [
        {
          "internalType": "uint256",
          "name": "_itemId",
          "type": "uint256"
        }
      ],
      "name": "purchaseItem",
      "outputs": [],
      "stateMutability": "nonpayable",
      "type": "function"
    },
    {
      "inputs": [],
      "name": "getBalance",
      "outputs": [
        {
          "internalType": "uint256",
          "name": "",
          "type": "uint256"
        }
      ],
      "stateMutability": "view",
      "type": "function"
    },
    {
      "inputs": [],
      "name": "isRegistered",
      "outputs": [
        {
          "internalType": "bool",
          "name": "",
          "type": "bool"
        }
      ],
      "stateMutability": "view",
      "type": "function"
    }
  ],
  "bytecode": "0x608060405234801561001057600080fd5b50610c7c806100206000396000f3fe608060405234801561001057600080fd5b50600436106100885760003560e01c80636bfb0d011161005b5780636bfb0d01146100f7578063a87430ba14610100578063bfb231d214610163578063d38ea5bf1461018957600080fd5b80630562021c1461008d57806312065fe0146100a257806322366844146100c95780634d3820eb146100ef575b600080fd5b6100a061009b366004610915565b61019c565b005b336000908152602081905260409020600101545b6040519081526020015b60405180910390f35b3360009081526020819052604090206002015460ff1660405190151581526020016100c0565b6100a0610379565b6100b660025481565b61013c61010e366004610982565b6000602081905290815260409020805460018201546002909201546001600160a01b03909116919060ff1683565b604080516001600160a01b03909416845260208401929092521515908201526060016100c0565b6101766101713660046109b2565b61047a565b6040516100c09796959493929190610a11565b6100a06101973660046109b2565b6105d8565b3360009081526020819052604090206002015460ff166101f95760405162461bcd60e51b8152602060048201526013602482015272155cd95c881b9bdd081c9959da5cdd195c9959606a1b60448201526064015b60405180910390fd5b600081116102495760405162461bcd60e51b815260206004820152601c60248201527f5072696365206d7573742062652067726561746572207468616e20300000000060448201526064016101f0565b6002805490600061025983610a85565b90915550506040805160e081018252600254808252602080830187815283850187905260608401869052336080850152600060a0850181905260c0850181905292835260019182905293909120825181559251919291908201906102bd9082610b27565b50604082015160028201906102d29082610b27565b506060820151600382015560808201516004820180546001600160a01b0319166001600160a01b0392831617905560a08301516005909201805460c090940151929091166001600160a81b031990931692909217600160a01b911515919091021790556002546040517f16244e47af8a7d2c923faa2cab44315c0514c7aa830682bbb9cc8f0d37ad75489061036c90869085903390610be7565b60405180910390a2505050565b3360009081526020819052604090206002015460ff16156103dc5760405162461bcd60e51b815260206004820152601760248201527f5573657220616c7265616479207265676973746572656400000000000000000060448201526064016101f0565b6040805160608101825233808252683635c9adc5dea00000602080840182815260018587018181526000868152808552889020965187546001600160a01b0319166001600160a01b03909116178755915190860155516002909401805460ff1916941515949094179093559251928352917fe29d35093005f4d575e1003753426b57a7f64378ba73332eef9c6ccc2b8decd6910160405180910390a2565b60016020819052600091825260409091208054918101805461049b90610a9e565b80601f01602080910402602001604051908101604052809291908181526020018280546104c790610a9e565b80156105145780601f106104e957610100808354040283529160200191610514565b820191906000526020600020905b8154815290600101906020018083116104f757829003601f168201915b50505050509080600201805461052990610a9e565b80601f016020809104026020016040519081016040528092919081815260200182805461055590610a9e565b80156105a25780601f10610577576101008083540402835291602001916105a2565b820191906000526020600020905b81548152906001019060200180831161058557829003601f168201915b5050505060038301546004840154600590940154929390926001600160a01b03918216925090811690600160a01b900460ff1687565b3360009081526020819052604090206002015460ff166106305760405162461bcd60e51b8152602060048201526013602482015272155cd95c881b9bdd081c9959da5cdd195c9959606a1b60448201526064016101f0565b60008111801561064257506002548111155b6106805760405162461bcd60e51b815260206004820152600f60248201526e125b9d985b1a59081a5d195b481251608a1b60448201526064016101f0565b60008181526001602052604090206005810154600160a01b900460ff16156106de5760405162461bcd60e51b8152602060048201526011602482015270125d195b48185b1c9958591e481cdbdb19607a1b60448201526064016101f0565b60048101546001600160a01b0316330361073a5760405162461bcd60e51b815260206004820152601860248201527f43616e6e6f742062757920796f7572206f776e206974656d000000000000000060448201526064016101f0565b60038101543360009081526020819052604090206001015410156107975760405162461bcd60e51b8152602060048201526014602482015273496e73756666696369656e742062616c616e636560601b60448201526064016101f0565b600381015433600090815260208190526040812060010180549091906107be908490610c1a565b9091555050600381015460048201546001600160a01b0316600090815260208190526040812060010180549091906107f7908490610c33565b909155505060058101805460ff60a01b19339081166001600160a81b031990921691909117600160a01b179091556004820154604080519283526001600160a01b03909116602083015283917f3d33dab2887eb74204441fe6858b6ee245b3875af43d57969005ca2ea6863950910160405180910390a25050565b634e487b7160e01b600052604160045260246000fd5b600082601f83011261089957600080fd5b813567ffffffffffffffff808211156108b4576108b4610872565b604051601f8301601f19908116603f011681019082821181831017156108dc576108dc610872565b816040528381528660208588010111156108f557600080fd5b836020870160208301376000602085830101528094505050505092915050565b60008060006060848603121561092a57600080fd5b833567ffffffffffffffff8082111561094257600080fd5b61094e87838801610888565b9450602086013591508082111561096457600080fd5b5061097186828701610888565b925050604084013590509250925092565b60006020828403121561099457600080fd5b81356001600160a01b03811681146109ab57600080fd5b9392505050565b6000602082840312156109c457600080fd5b5035919050565b6000815180845260005b818110156109f1576020818501810151868301820152016109d5565b506000602082860101526020601f19601f83011685010191505092915050565b87815260e060208201526000610a2a60e08301896109cb565b8281036040840152610a3c81896109cb565b606084019790975250506001600160a01b0393841660808201529190921660a082015290151560c0909101529392505050565b634e487b7160e01b600052601160045260246000fd5b600060018201610a9757610a97610a6f565b5060010190565b600181811c90821680610ab257607f821691505b602082108103610ad257634e487b7160e01b600052602260045260246000fd5b50919050565b601f821115610b2257600081815260208120601f850160051c81016020861015610aff5750805b601f850160051c820191505b81811015610b1e57828155600101610b0b565b5050505b505050565b815167ffffffffffffffff811115610b4157610b41610872565b610b5581610b4f8454610a9e565b84610ad8565b602080601f831160018114610b8a5760008415610b725750858301515b600019600386901b1c1916600185901b178555610b1e565b600085815260208120601f198616915b82811015610bb957888601518255948401946001909101908401610b9a565b5085821015610bd75787850151600019600388901b60f8161c191681555b5050505050600190811b01905550565b606081526000610bfa60608301866109cb565b6020830194909452506001600160a01b0391909116604090910152919050565b81810381811115610c2d57610c2d610a6f565b92915050565b80820180821115610c2d57610c2d610a6f56fea2646970667358221220e5fe4839873a4c9f4e68209560e6a585854868f7f59844ad9f563cea54f7633f64736f6c63430008130033",
  "immutableReferences": {},
  "source": "// SPDX-License-Identifier: MIT\r\npragma solidity ^0.8.0;\r\n\r\ncontract Marketplace {\r\n    struct Item {\r\n        uint256 id;\r\n        string name;\r\n        string description;\r\n        uint256 price;\r\n        address payable seller;\r\n        address buyer;\r\n        bool sold;\r\n    }\r\n    \r\n    struct User {\r\n        address userAddress;\r\n        uint256 balance;\r\n        bool registered;\r\n    }\r\n    \r\n    mapping(address => User) public users;\r\n    mapping(uint256 => Item) public items;\r\n    uint256 public itemCount;\r\n    \r\n    event UserRegistered(address indexed user, uint256 initialBalance);\r\n    event ItemListed(uint256 indexed itemId, string name, uint256 price, address seller);\r\n    event ItemPurchased(uint256 indexed itemId, address buyer, address seller);\r\n    \r\n    // ng k ti khon v cp tin ban u\r\n    function registerUser() public {\r\n        require(!users[msg.sender].registered, \"User already registered\");\r\n        \r\n        users[msg.sender] = User({\r\n            userAddress: msg.sender,\r\n            balance: 1000 ether, // Cp 1000 token ban u\r\n            registered: true\r\n        });\r\n        \r\n        emit UserRegistered(msg.sender, 1000 ether);\r\n    }\r\n    \r\n    // ng bn vt phm\r\n    function listItem(string memory _name, string memory _description, uint256 _price) public {\r\n        require(users[msg.sender].registered, \"User not registered\");\r\n        require(_price > 0, \"Price must be greater than 0\");\r\n        \r\n        itemCount++;\r\n        items[itemCount] = Item({\r\n            id: itemCount,\r\n            name: _name,\r\n            description: _description,\r\n            price: _price,\r\n            seller: payable(msg.sender),\r\n            buyer: address(0),\r\n            sold: false\r\n        });\r\n        \r\n        emit ItemListed(itemCount, _name, _price, msg.sender);\r\n    }\r\n    \r\n    // Mua vt phm\r\n    function purchaseItem(uint256 _itemId) public {\r\n        require(users[msg.sender].registered, \"User not registered\");\r\n        require(_itemId > 0 && _itemId <= itemCount, \"Invalid item ID\");\r\n        \r\n        Item storage item = items[_itemId];\r\n        require(!item.sold, \"Item already sold\");\r\n        require(msg.sender != item.seller, \"Cannot buy your own item\");\r\n        require(users[msg.sender].balance >= item.price, \"Insufficient balance\");\r\n        \r\n        // Chuyn tin\r\n        users[msg.sender].balance -= item.price;\r\n        users[item.seller].balance += item.price;\r\n        \r\n        // Cp nht trng thi\r\n        item.buyer = msg.sender;\r\n        item.sold = true;\r\n        \r\n        emit ItemPurchased(_itemId, msg.sender, item.seller);\r\n    }\r\n    \r\n    // Ly s d\r\n    function getBalance() public view returns (uint256) {\r\n        return users[msg.sender].balance;\r\n    }\r\n    \r\n    // Kim tra  ng k cha\r\n    function isRegistered() public view returns (bool) {\r\n        return users[msg.sender].registered;\r\n    }\r\n}",
  "sourcePath": "D:\\chuyende\\web3\\blockchain-marketplace\\contracts\\Marketplace.sol",
  "compiler": {
    "name": "solc",
    "version": "0.8.19+commit.7dd6d404.Emscripten.clang"
  },
  "schemaVersion": "3.4.16",
  "updatedAt": "2025-12-07T16:27:07.369Z",
  "devdoc": {
    "kind": "dev",
    "methods": {},
    "version": 1
  },
  "userdoc": {
    "kind": "user",
    "methods": {},
    "version": 1
  }
}